{
  "contractName": "TwitterContract",
  "abi": [
    {
      "anonymous": false,
      "inputs": [
        {
          "indexed": false,
          "internalType": "address",
          "name": "recipient",
          "type": "address"
        },
        {
          "indexed": false,
          "internalType": "uint256",
          "name": "tweetId",
          "type": "uint256"
        }
      ],
      "name": "AddTweet",
      "type": "event"
    },
    {
      "anonymous": false,
      "inputs": [
        {
          "indexed": false,
          "internalType": "uint256",
          "name": "tweetId",
          "type": "uint256"
        },
        {
          "indexed": false,
          "internalType": "bool",
          "name": "isDeleted",
          "type": "bool"
        }
      ],
      "name": "DeleteTweet",
      "type": "event"
    },
    {
      "inputs": [
        {
          "internalType": "uint256",
          "name": "",
          "type": "uint256"
        }
      ],
      "name": "tweets",
      "outputs": [
        {
          "internalType": "uint256",
          "name": "id",
          "type": "uint256"
        },
        {
          "internalType": "address",
          "name": "username",
          "type": "address"
        },
        {
          "internalType": "string",
          "name": "tweetText",
          "type": "string"
        },
        {
          "internalType": "bool",
          "name": "isDeleted",
          "type": "bool"
        }
      ],
      "stateMutability": "view",
      "type": "function",
      "constant": true
    },
    {
      "inputs": [
        {
          "internalType": "string",
          "name": "tweetText",
          "type": "string"
        },
        {
          "internalType": "bool",
          "name": "isDeleted",
          "type": "bool"
        }
      ],
      "name": "addTweet",
      "outputs": [],
      "stateMutability": "nonpayable",
      "type": "function"
    },
    {
      "inputs": [
        {
          "internalType": "uint256",
          "name": "tweetId",
          "type": "uint256"
        },
        {
          "internalType": "bool",
          "name": "isDeleted",
          "type": "bool"
        }
      ],
      "name": "deleteTweet",
      "outputs": [],
      "stateMutability": "nonpayable",
      "type": "function"
    },
    {
      "inputs": [],
      "name": "getMyTweets",
      "outputs": [
        {
          "components": [
            {
              "internalType": "uint256",
              "name": "id",
              "type": "uint256"
            },
            {
              "internalType": "address",
              "name": "username",
              "type": "address"
            },
            {
              "internalType": "string",
              "name": "tweetText",
              "type": "string"
            },
            {
              "internalType": "bool",
              "name": "isDeleted",
              "type": "bool"
            }
          ],
          "internalType": "struct TwitterContract.Tweet[]",
          "name": "",
          "type": "tuple[]"
        }
      ],
      "stateMutability": "view",
      "type": "function",
      "constant": true
    },
    {
      "inputs": [],
      "name": "getAllTweets",
      "outputs": [
        {
          "components": [
            {
              "internalType": "uint256",
              "name": "id",
              "type": "uint256"
            },
            {
              "internalType": "address",
              "name": "username",
              "type": "address"
            },
            {
              "internalType": "string",
              "name": "tweetText",
              "type": "string"
            },
            {
              "internalType": "bool",
              "name": "isDeleted",
              "type": "bool"
            }
          ],
          "internalType": "struct TwitterContract.Tweet[]",
          "name": "",
          "type": "tuple[]"
        }
      ],
      "stateMutability": "view",
      "type": "function",
      "constant": true
    }
  ],
  "bytecode": "0x608060405234801561001057600080fd5b50611451806100206000396000f3fe608060405234801561001057600080fd5b50600436106100575760003560e01c8063532561351461005c578063aefedbc21461007a578063e580339f14610098578063e8d857b0146100b4578063f0312a37146100e7575b600080fd5b610064610103565b6040516100719190610cf6565b60405180910390f35b6100826103e4565b60405161008f9190610cf6565b60405180910390f35b6100b260048036038101906100ad9190610e8d565b610730565b005b6100ce60048036038101906100c99190610f15565b6108b6565b6040516100de9493929190610fb9565b60405180910390f35b61010160048036038101906100fc9190611005565b6109ab565b005b60606000808054905067ffffffffffffffff81111561012557610124610d36565b5b60405190808252806020026020018201604052801561015e57816020015b61014b610a8c565b8152602001906001900390816101435790505b5090506000805b60008054905081101561032a57600015156000828154811061018a57610189611045565b5b906000526020600020906004020160030160009054906101000a900460ff1615150361031757600081815481106101c4576101c3611045565b5b9060005260206000209060040201604051806080016040529081600082015481526020016001820160009054906101000a900473ffffffffffffffffffffffffffffffffffffffff1673ffffffffffffffffffffffffffffffffffffffff1673ffffffffffffffffffffffffffffffffffffffff16815260200160028201805461024d906110a3565b80601f0160208091040260200160405190810160405280929190818152602001828054610279906110a3565b80156102c65780601f1061029b576101008083540402835291602001916102c6565b820191906000526020600020905b8154815290600101906020018083116102a957829003601f168201915b505050505081526020016003820160009054906101000a900460ff1615151515815250508383815181106102fd576102fc611045565b5b6020026020010181905250818061031390611103565b9250505b808061032290611103565b915050610165565b5060008167ffffffffffffffff81111561034757610346610d36565b5b60405190808252806020026020018201604052801561038057816020015b61036d610a8c565b8152602001906001900390816103655790505b50905060005b828110156103da578381815181106103a1576103a0611045565b5b60200260200101518282815181106103bc576103bb611045565b5b602002602001018190525080806103d290611103565b915050610386565b5080935050505090565b60606000808054905067ffffffffffffffff81111561040657610405610d36565b5b60405190808252806020026020018201604052801561043f57816020015b61042c610a8c565b8152602001906001900390816104245790505b5090506000805b600080549050811015610676573373ffffffffffffffffffffffffffffffffffffffff166001600083815260200190815260200160002060009054906101000a900473ffffffffffffffffffffffffffffffffffffffff1673ffffffffffffffffffffffffffffffffffffffff161480156104f7575060001515600082815481106104d4576104d3611045565b5b906000526020600020906004020160030160009054906101000a900460ff161515145b1561066357600081815481106105105761050f611045565b5b9060005260206000209060040201604051806080016040529081600082015481526020016001820160009054906101000a900473ffffffffffffffffffffffffffffffffffffffff1673ffffffffffffffffffffffffffffffffffffffff1673ffffffffffffffffffffffffffffffffffffffff168152602001600282018054610599906110a3565b80601f01602080910402602001604051908101604052809291908181526020018280546105c5906110a3565b80156106125780601f106105e757610100808354040283529160200191610612565b820191906000526020600020905b8154815290600101906020018083116105f557829003601f168201915b505050505081526020016003820160009054906101000a900460ff16151515158152505083838151811061064957610648611045565b5b6020026020010181905250818061065f90611103565b9250505b808061066e90611103565b915050610446565b5060008167ffffffffffffffff81111561069357610692610d36565b5b6040519080825280602002602001820160405280156106cc57816020015b6106b9610a8c565b8152602001906001900390816106b15790505b50905060005b82811015610726578381815181106106ed576106ec611045565b5b602002602001015182828151811061070857610707611045565b5b6020026020010181905250808061071e90611103565b9150506106d2565b5080935050505090565b600080805490509050600060405180608001604052808381526020013373ffffffffffffffffffffffffffffffffffffffff16815260200185815260200184151581525090806001815401808255809150506001900390600052602060002090600402016000909190919091506000820151816000015560208201518160010160006101000a81548173ffffffffffffffffffffffffffffffffffffffff021916908373ffffffffffffffffffffffffffffffffffffffff160217905550604082015181600201908161080391906112f7565b5060608201518160030160006101000a81548160ff0219169083151502179055505050336001600083815260200190815260200160002060006101000a81548173ffffffffffffffffffffffffffffffffffffffff021916908373ffffffffffffffffffffffffffffffffffffffff1602179055507f8b2db9b424f26463510ef5b02c16f2465836b52081b51d2112ec76102053bdea33826040516108a99291906113c9565b60405180910390a1505050565b600081815481106108c657600080fd5b90600052602060002090600402016000915090508060000154908060010160009054906101000a900473ffffffffffffffffffffffffffffffffffffffff1690806002018054610915906110a3565b80601f0160208091040260200160405190810160405280929190818152602001828054610941906110a3565b801561098e5780601f106109635761010080835404028352916020019161098e565b820191906000526020600020905b81548152906001019060200180831161097157829003601f168201915b5050505050908060030160009054906101000a900460ff16905084565b3373ffffffffffffffffffffffffffffffffffffffff166001600084815260200190815260200160002060009054906101000a900473ffffffffffffffffffffffffffffffffffffffff1673ffffffffffffffffffffffffffffffffffffffff1603610a88578060008381548110610a2657610a25611045565b5b906000526020600020906004020160030160006101000a81548160ff0219169083151502179055507f2430f837dd2fb40e08c064be9db3d0cf2a7a21f8fe716a2a41787dafc66a7e2a8282604051610a7f9291906113f2565b60405180910390a15b5050565b604051806080016040528060008152602001600073ffffffffffffffffffffffffffffffffffffffff168152602001606081526020016000151581525090565b600081519050919050565b600082825260208201905092915050565b6000819050602082019050919050565b6000819050919050565b610b0b81610af8565b82525050565b600073ffffffffffffffffffffffffffffffffffffffff82169050919050565b6000610b3c82610b11565b9050919050565b610b4c81610b31565b82525050565b600081519050919050565b600082825260208201905092915050565b60005b83811015610b8c578082015181840152602081019050610b71565b60008484015250505050565b6000601f19601f8301169050919050565b6000610bb482610b52565b610bbe8185610b5d565b9350610bce818560208601610b6e565b610bd781610b98565b840191505092915050565b60008115159050919050565b610bf781610be2565b82525050565b6000608083016000830151610c156000860182610b02565b506020830151610c286020860182610b43565b5060408301518482036040860152610c408282610ba9565b9150506060830151610c556060860182610bee565b508091505092915050565b6000610c6c8383610bfd565b905092915050565b6000602082019050919050565b6000610c8c82610acc565b610c968185610ad7565b935083602082028501610ca885610ae8565b8060005b85811015610ce45784840389528151610cc58582610c60565b9450610cd083610c74565b925060208a01995050600181019050610cac565b50829750879550505050505092915050565b60006020820190508181036000830152610d108184610c81565b905092915050565b6000604051905090565b600080fd5b600080fd5b600080fd5b600080fd5b7f4e487b7100000000000000000000000000000000000000000000000000000000600052604160045260246000fd5b610d6e82610b98565b810181811067ffffffffffffffff82111715610d8d57610d8c610d36565b5b80604052505050565b6000610da0610d18565b9050610dac8282610d65565b919050565b600067ffffffffffffffff821115610dcc57610dcb610d36565b5b610dd582610b98565b9050602081019050919050565b82818337600083830152505050565b6000610e04610dff84610db1565b610d96565b905082815260208101848484011115610e2057610e1f610d31565b5b610e2b848285610de2565b509392505050565b600082601f830112610e4857610e47610d2c565b5b8135610e58848260208601610df1565b91505092915050565b610e6a81610be2565b8114610e7557600080fd5b50565b600081359050610e8781610e61565b92915050565b60008060408385031215610ea457610ea3610d22565b5b600083013567ffffffffffffffff811115610ec257610ec1610d27565b5b610ece85828601610e33565b9250506020610edf85828601610e78565b9150509250929050565b610ef281610af8565b8114610efd57600080fd5b50565b600081359050610f0f81610ee9565b92915050565b600060208284031215610f2b57610f2a610d22565b5b6000610f3984828501610f00565b91505092915050565b610f4b81610af8565b82525050565b610f5a81610b31565b82525050565b600082825260208201905092915050565b6000610f7c82610b52565b610f868185610f60565b9350610f96818560208601610b6e565b610f9f81610b98565b840191505092915050565b610fb381610be2565b82525050565b6000608082019050610fce6000830187610f42565b610fdb6020830186610f51565b8181036040830152610fed8185610f71565b9050610ffc6060830184610faa565b95945050505050565b6000806040838503121561101c5761101b610d22565b5b600061102a85828601610f00565b925050602061103b85828601610e78565b9150509250929050565b7f4e487b7100000000000000000000000000000000000000000000000000000000600052603260045260246000fd5b7f4e487b7100000000000000000000000000000000000000000000000000000000600052602260045260246000fd5b600060028204905060018216806110bb57607f821691505b6020821081036110ce576110cd611074565b5b50919050565b7f4e487b7100000000000000000000000000000000000000000000000000000000600052601160045260246000fd5b600061110e82610af8565b91507fffffffffffffffffffffffffffffffffffffffffffffffffffffffffffffffff82036111405761113f6110d4565b5b600182019050919050565b60008190508160005260206000209050919050565b60006020601f8301049050919050565b600082821b905092915050565b6000600883026111ad7fffffffffffffffffffffffffffffffffffffffffffffffffffffffffffffffff82611170565b6111b78683611170565b95508019841693508086168417925050509392505050565b6000819050919050565b60006111f46111ef6111ea84610af8565b6111cf565b610af8565b9050919050565b6000819050919050565b61120e836111d9565b61122261121a826111fb565b84845461117d565b825550505050565b600090565b61123761122a565b611242818484611205565b505050565b5b818110156112665761125b60008261122f565b600181019050611248565b5050565b601f8211156112ab5761127c8161114b565b61128584611160565b81016020851015611294578190505b6112a86112a085611160565b830182611247565b50505b505050565b600082821c905092915050565b60006112ce600019846008026112b0565b1980831691505092915050565b60006112e783836112bd565b9150826002028217905092915050565b61130082610b52565b67ffffffffffffffff81111561131957611318610d36565b5b61132382546110a3565b61132e82828561126a565b600060209050601f831160018114611361576000841561134f578287015190505b61135985826112db565b8655506113c1565b601f19841661136f8661114b565b60005b8281101561139757848901518255600182019150602085019450602081019050611372565b868310156113b457848901516113b0601f8916826112bd565b8355505b6001600288020188555050505b505050505050565b60006040820190506113de6000830185610f51565b6113eb6020830184610f42565b9392505050565b60006040820190506114076000830185610f42565b6114146020830184610faa565b939250505056fea264697066735822122054ad364707781d35ac1e16c7f0a91cbe209395af0c118ab294023d9f0c98f25f64736f6c63430008110033",
  "immutableReferences": {},
  "source": "// SPDX-License-Identifier: MIT\npragma solidity >=0.4.22 <0.9.0;\n\ncontract TwitterContract {\n    struct Tweet {\n        uint256 id;\n        address username;\n        string tweetText;\n        bool isDeleted;\n    }\n\n    Tweet[] public tweets;\n\n    mapping(uint256 => address) tweetToOwner;\n\n    function addTweet(string memory tweetText, bool isDeleted) external {\n        uint256 tweetId = tweets.length;\n        tweets.push(Tweet(tweetId, msg.sender, tweetText, isDeleted));\n        tweetToOwner[tweetId] = msg.sender;\n        emit AddTweet(msg.sender, tweetId);\n    }\n\n    event AddTweet(address recipient, uint256 tweetId);\n\n    function deleteTweet(uint256 tweetId, bool isDeleted) external {\n        if (tweetToOwner[tweetId] == msg.sender) {\n            tweets[tweetId].isDeleted = isDeleted;\n            emit DeleteTweet(tweetId, isDeleted);\n        }\n    }\n\n    event DeleteTweet(uint256 tweetId, bool isDeleted);\n\n    function getMyTweets() external view returns (Tweet[] memory) {\n        Tweet[] memory temporary = new Tweet[](tweets.length);\n        uint256 counter = 0;\n        for (uint256 i = 0; i < tweets.length; i++) {\n            if (tweetToOwner[i] == msg.sender && tweets[i].isDeleted == false) {\n                temporary[counter] = tweets[i];\n                counter++;\n            }\n        }\n\n        Tweet[] memory result = new Tweet[](counter);\n        for (uint256 i = 0; i < counter; i++) {\n            result[i] = temporary[i];\n        }\n        return result;\n    }\n\n    function getAllTweets() external view returns (Tweet[] memory) {\n        Tweet[] memory temporary = new Tweet[](tweets.length);\n        uint256 counter = 0;\n        for (uint256 i = 0; i < tweets.length; i++) {\n            if (tweets[i].isDeleted == false) {\n                temporary[counter] = tweets[i];\n                counter++;\n            }\n        }\n\n        Tweet[] memory result = new Tweet[](counter);\n        for (uint256 i = 0; i < counter; i++) {\n            result[i] = temporary[i];\n        }\n        return result;\n    }\n}\n",
  "sourcePath": "c:\\Users\\harsh\\Desktop\\dwitter\\backend\\contracts\\TwitterContract.sol",
  "compiler": {
    "name": "solc",
    "version": "0.8.17+commit.8df45f5f.Emscripten.clang"
  },
  "schemaVersion": "3.4.10",
  "updatedAt": "2022-11-01T06:13:50.598Z",
  "networkType": "ethereum",
  "devdoc": {
    "kind": "dev",
    "methods": {},
    "version": 1
  },
  "userdoc": {
    "kind": "user",
    "methods": {},
    "version": 1
  }
}